:100000000C942B000C9453000C9453000C9453004C
:100010000C9453000C9453000C9453000C94530014
:100020000C9453000C9453000C9453000C94530004
:100030000C9453000C9453000C9453000C945300F4
:100040000C9453000C9453000C9453000C94B50082
:100050000C945300A10211241FBECFE5D4E0DEBFF3
:10006000CDBF20E0A6E6B0E001C01D92AC38B207DB
:10007000E1F710E0A0E6B0E0EEECF7E002C005909A
:100080000D92A636B107D9F710E0CBE2D0E004C05C
:100090002197FE010E94B202CA32D107C9F70E941D
:1000A0009E020C94E5030C940000209172003091A4
:1000B00073002D3D3105A8F420917200309173003A
:1000C0002031310540F038B324E0232728BB1092BB
:1000D00073001092720020EA30E0FC013383228327
:1000E00008953091740021E023272093740010922A
:1000F00073001092720020EA30E0FC013383228307
:100100000895809174008823C9F0809175009091C2
:1001100076008D3B924044F010927600109275006C
:1001200098B382E0892788BB809175009091760012
:10013000019690937600809375000895C19A089572
:1001400025E530E0FC0133832283879909C0809143
:1001500072009091730001969093730080937200E7
:1001600008950C94B8020C944D031F920F920FB691
:100170000F9211242F933F934F935F936F937F932D
:100180008F939F93AF93BF93EF93FF9390918700CB
:10019000E92FF0E0EE0FFF1FE958FF4FA081B1817A
:1001A000109741F01296ED91FC911397CD010995AE
:1001B000909187009F5F983098F010928700FF9190
:1001C000EF91BF91AF919F918F917F916F915F91CF
:1001D0004F913F912F910F900FBE0F901F90189548
:1001E00090938700ECCF81E890E090936D0080932E
:1001F0006C008091770090917800009709F47EC0A0
:100200002091790030917A00232B09F48BC0209142
:100210007B0030917C00232B09F48DC020917D0060
:1002200030917E00232B09F489C020917F0030910A
:100230008000232B09F48BC0209181003091820033
:10024000232B09F487C02091830030918400232B55
:1002500009F489C02091850030918600232B09F490
:1002600085C020EA30E03093690020936800892B34
:1002700009F441C08091790090917A00892B09F4AA
:1002800054C080917B0090917C00892B09F450C070
:1002900080917D0090917E00892B09F452C080915D
:1002A0007F0090918000892B09F44EC080918100DD
:1002B00090918200892B09F450C080918300909125
:1002C0008400892B09F44CC08091850090918600B0
:1002D000892B09F0089587E090E0FC01EE0FFF1FE5
:1002E000E958FF4F26E630E0318320839093670082
:1002F00080936600089580E090E0EFCF80E090E08A
:10030000FC01EE0FFF1FE958FF4F2AE630E0318372
:10031000208390936B0080936A0080917700909186
:1003200078009FCF81E090E0EBCF81E090E0D5CFE7
:1003300082E090E0D2CF82E090E0E2CF83E090E0F4
:10034000DFCF83E090E0C9CF84E090E0C6CF84E0C7
:1003500090E0D6CF85E090E0D3CF85E090E0BDCFB0
:1003600086E090E0BACF86E090E0CACF87E090E0E8
:10037000C7CF81B311BA979A87B3876087BB88B319
:10038000876088BB81E890E090936D0080936C005B
:100390008091770090917800009709F481C02091B6
:1003A000790030917A00232B09F4A1C020917B00C1
:1003B00030917C00232B09F4A0C020917D00309166
:1003C0007E00232B09F49CC020917F003091800097
:1003D000232B09F49BC02091810030918200232BB4
:1003E00009F49DC02091830030918400232B09F4EF
:1003F0009CC02091850030918600232B09F49BC07E
:1004000020EA30E03093690020936800892B09F4DA
:100410005BC08091790090917A00892B09F464C0C7
:1004200080917B0090917C00892B09F463C08091BE
:100430007D0090917E00892B09F465C080917F003A
:1004400090918000892B09F464C080918100909183
:100450008200892B09F460C0809183009091840010
:10046000892B09F45FC08091850090918600892BCB
:1004700009F45EC087E08CBF83B78E7F83BF83B7EC
:10048000886083BF89B78E7F89BF89B7826089BF43
:1004900083B78E7F83BF83B7846083BF78940895CA
:1004A00080E090E0FC01EE0FFF1FE958FF4F2AE6C5
:1004B00030E03183208390936B0080936A008091B9
:1004C0007700909178009CCF80E090E0FC01EE0FE7
:1004D000FF1FE958FF4F26E630E0318320839093D9
:1004E000670080936600C6CF81E090E0EFCF81E0A7
:1004F00090E0D8CF82E090E0E9CF82E090E0D2CFE8
:1005000083E090E0CFCF83E090E0E0CF84E090E024
:10051000C9CF84E090E0DACF85E090E0D7CF85E0E6
:1005200090E0C0CF86E090E0D1CF86E090E0BACFF7
:1005300087E090E0CBCF87E090E0B4CF0E94B90194
:10054000FFCFE7E7F0E0108A80E1DF011D928A9596
:10055000E9F710926D0010926C00109269001092F1
:1005600068000895EE0FFF1F0590F491E02D0994A7
:10057000CF93DF938230910510F482E090E0E09118
:100580008A00F0918B0020E030E0C0E0D0E03097AE
:1005900011F14081518148175907C0F04817590798
:1005A00061F482819381209719F09B838A832BC009
:1005B00090938B0080938A0026C02115310519F095
:1005C0004217530718F49A01BE01DF01EF010280C0
:1005D000F381E02DDCCF2115310509F1281B390B02
:1005E0002430310590F412968D919C9113976115EA
:1005F000710521F0FB019383828304C090938B00EB
:1006000080938A00FD01329644C0FD01E20FF31F82
:1006100081939193225031092D933C933AC02091BC
:10062000880030918900232B41F4209162003091A1
:1006300063003093890020938800209160003091FE
:1006400061002115310541F42DB73EB7409164009A
:1006500050916500241B350BE0918800F0918900D2
:10066000E217F307A0F42E1B3F0B2817390778F089
:10067000AC014E5F5F4F2417350748F04E0F5F1FE8
:1006800050938900409388008193919302C0E0E0E9
:10069000F0E0CF01DF91CF9108950F931F93CF9397
:1006A000DF93009709F48CC0FC0132971382128209
:1006B00000918A0010918B000115110581F42081B1
:1006C0003181820F931F2091880030918900281773
:1006D000390779F5F0938900E093880071C0D8015B
:1006E00040E050E0AE17BF0750F412962D913C91B8
:1006F0001397AD012115310509F1D901F3CF9D0102
:10070000DA013383228360817181860F971F8217FC
:10071000930769F4EC0128813981260F371F2E5F7A
:100720003F4F318320838A819B8193838283452B32
:1007300029F4F0938B00E0938A0042C01396FC9357
:10074000EE931297ED01499159919E01240F351FA7
:10075000E217F30771F480819181840F951F02964F
:1007600011969C938E938281938113969C938E9382
:100770001297E0E0F0E0D80112968D919C911397CA
:10078000009719F0F8018C01F6CF8D919C9198019A
:100790002E5F3F4F820F931F209188003091890078
:1007A0002817390769F4309729F410928B001092BA
:1007B0008A0002C01382128210938900009388007D
:0E07C000DF91CF911F910F910895F894FFCF14
:0607CE0000008C00200079
:00000001FF
