:100000000C942C000C9454000C9454000C94540048
:100010000C9454000C9454000C9454000C94540010
:100020000C9454000C9454000C9454000C94540000
:100030000C9454000C9454000C9454000C945400F0
:100040000C9454000C9454000C9454000C945C00D8
:100050000C945400F9028D0311241FBECFE5D4E0A7
:10006000DEBFCDBF12E0A0E6B0E0E0E9F4E102C0FF
:1000700005900D92AC3EB107D9F723E0ACEEB2E0AB
:1000800001C01D92A835B207E1F710E0CBE2D0E045
:1000900004C02197FE010E940809CA32D107C9F79E
:1000A0000E9477020C943B0A0C9400000E940E09F7
:1000B00008950E94A30908951F920F920FB60F9200
:1000C00011242F933F934F935F936F937F938F935D
:1000D0009F93AF93BF93EF93FF93E0915303F0E0AF
:1000E000EE0FFF1FED5BFC4F80819181009731F097
:1000F000DC011296ED91FC911397099580915303C1
:100100008F5F883018F48093530302C0109253031A
:10011000FF91EF91BF91AF919F918F917F916F91DF
:100120005F914F913F912F910F900FBE0F901F90B5
:1001300018958091EC029091ED0281309105B9F013
:100140001CF4892B39F0089582309105F1F0039762
:1001500069F1089581E090E09093ED028093EC02C4
:10016000AE98AF9A8FEF93E097BD86BD0895AF9894
:10017000AE9AEAEFF2E014828281858382E090E019
:100180009093ED028093EC020895AF98AE9883E0CF
:1001900090E09093ED028093EC028091FA029091AE
:1001A000FB0290933C0380933B0308951092ED0271
:1001B0001092EC0208950F931F93CF93DF93C2EF39
:1001C000D2E08A819B81DC01ED91FC910684F78568
:1001D000E02D09958A819B81DC01ED91FC910088DD
:1001E000F189E02D099581E090E09F838E8307E1FE
:1001F00010E088819981DC01ED91FC910088F18902
:10020000E02D09958E819F81880F991F9F838E8392
:100210008C819D81DC01ED91FC910484F585E02DBC
:100220000995811105C08E819F8101969F838E83E0
:1002300088819981DC01ED91FC910684F785E02DA0
:10024000099501501109A9F6E2EFF2E08681978144
:1002500085B38F6385BB8681978190FF08C081E05D
:1002600090E09093ED028093EC020E9499008091BF
:10027000F8029091F90287FF08C082E090E0909325
:10028000ED028093EC020E9499008091F802909117
:10029000F90292FDA8988091F8029091F9029923B1
:1002A0000CF4A9988091F8029091F90296FDAA9811
:1002B0008091F8029091F90295FDAB988091F80237
:1002C0009091F90291FDAC988091F8029091F90219
:1002D00085FDAD98DF91CF911F910F9108958BED22
:1002E00090E09093F1028093F0028091430390910B
:1002F0004403892B61F0E5E4F3E043E553E081E05A
:1003000090E0BC0121913191232B79F402C060E08F
:1003100070E0FB01EE0FFF1FED5BFC4FAEEEB2E0B5
:10032000B183A0836D937C9308950196E417F5073C
:1003300041F708958D9A8EB5877E8EBD8FB58C7FDF
:100340008FBD8FB582608FBD8EB580618EBD8FB53C
:1003500080688FBD8EB5887F8EBD8EB581608EBD65
:100360008FEF9FEF97BD86BD1BBC1ABC08958FEF22
:100370008ABB84BB81BB87BB88BB85BB82BBA79A7A
:10038000A69A0895CF93DF930E94B701CAEFD2E0F7
:1003900088859985DC01ED91FC910488F589E02D33
:1003A00009958C859D85DC01ED91FC910688F78986
:1003B000E02D09958E819F81DC01ED91FC910488EF
:1003C000F589E02D09958A859B85DC01ED91FC91ED
:1003D0000488F589E02D09958E859F85DC01ED91D6
:1003E000FC910488F589E02D099588859985DC01C3
:1003F000ED91FC910684F785E02D09951DB86C9A66
:100400006E9A8EB18EB988859985DC01ED91FC914B
:100410000088F189E02D09958FEF8FB9779BFECF8A
:100420008FEF8FB9779BFECFCAEFD2E08885998591
:10043000DC01ED91FC910684F785E02D0995888516
:100440009985DC01ED91FC910684F785E02D0995F5
:100450008091100390911103DC01ED91FC910088D3
:10046000F189E02D09950E946F0187E08CBF83B769
:100470008E7F83BF83B7886083BF89B78E7F89BF34
:1004800089B7826089BF83B7887F83BF83B7846061
:1004900083BF78940E949A01C2EFD2E0888199814B
:1004A000DC01ED91FC910488F589E02D09958A81A4
:1004B0009B81DC01ED91FC910488F589E02D099583
:1004C0008C819D81DC01ED91FC910688F789E02DFE
:1004D00009958A819B81DC01ED91FC910088F1896D
:1004E000E02D09950E949900DF91CF9108950E9417
:1004F000C201CAEFD2E01FEF88859985DC01ED913A
:10050000FC910088F189E02D09958A818B831FB9C0
:10051000779BFECF8FB190E0880F991F880F991FAE
:10052000880F991F8A831FB9779BFECF8FB190E008
:1005300095958795959587959595879595958795A3
:10054000959587952A81822B8A8388859985DC01F8
:10055000ED91FC910684F785E02D09958B81813C16
:1005600030F09A819F3318F49C819F5F9C836A814D
:10057000613C28F08F3318F48C8181508C838C81FE
:1005800070E0782B8D816B01C81AD108D982C8829E
:1005900080913B0390913C038C159D0508F4ACCFF2
:1005A00066B577B5E0903B03F0903C0380E090E0C7
:1005B0000E940D084B015C01B60180E090E00E94B2
:1005C0000D082B013C01B70180E090E00E940D086E
:1005D0009B01AC01C301B2010E946C079B01AC01FD
:1005E000C501B4010E949B080E94DE077BBD6ABD65
:1005F00083CF10925303E3E4F3E083E593E0119299
:100600001192E817F907D9F7EAE0F3E080E8868766
:1006100090EB978780EF808B81E8818B84EA828BD7
:1006200085EA838B86EA848B87EA858B8EEA868BC4
:100630008FEA878B83ED808F8AED818F8BED828FA0
:1006400085ED838F89ED848F88EA858F82E0868FA0
:1006500020E1278F20E420A320E221A321E222A38E
:1006600093A390EC94A398EC95A390EA96A39DEAAB
:1006700097A39BE890A781A78FE282A78EE283A72A
:1006800083EA84A786E285A787E286A789E287A70F
:100690008AE280AB8CE790E0918380838EE790E0E4
:1006A0009383828362E770E07387628744E750E058
:1006B000558344838AE790E09783868326E730E07A
:1006C0003587248780E790E091878087EAEFF2E022
:1006D00011821082128213821482158275876487B8
:1006E0005783468348E750E05187408737872687FE
:1006F00093878287E2EFF2E080E890E09183808345
:1007000082E890E09383828384E890E095838483F9
:100710001092F1021092F00208950895AE98089593
:10072000AF9A0895AF980895AE9A0895A89A08953B
:10073000A99A0895AA9A0895AB9A0895AC9A089533
:10074000AD9A0895A8980895A9980895AA9808952B
:10075000AB980895AC980895AD980895A79A089518
:10076000A69A0895089508950895089508950895FE
:100770000895089508950895089508950895089591
:1007800008950895089508950895A898089595B333
:1007900081E0892785BB0895A09A0895A0980895BF
:1007A000662341F0DC01ED91FC910684F785E02D94
:1007B00009950895DC01ED91FC910088F189E02D07
:1007C0000995089583B381700895A89A089595B303
:1007D00081E0892785BB0895A09A0895A09808957F
:1007E000A998089595B382E0892785BB0895A19AB9
:1007F0000895A1980895662341F0DC01ED91FC91E4
:100800000684F785E02D09950895DC01ED91FC91B2
:100810000088F189E02D0995089583B3869581704C
:100820000895A99A089595B382E0892785BB089514
:10083000A19A0895A1980895AA98089595B384E07F
:10084000892785BB0895A29A0895A29808956623E2
:1008500041F0DC01ED91FC910684F785E02D0995CE
:100860000895DC01ED91FC910088F189E02D099556
:10087000089583B382FB882780F90895AA9A089582
:1008800095B384E0892785BB0895A29A0895A2981C
:100890000895AB98089595B388E0892785BB08959E
:1008A000A39A0895A3980895662341F0DC01ED9181
:1008B000FC910684F785E02D09950895DC01ED9102
:1008C000FC910088F189E02D0995089583B383FB9D
:1008D000882780F90895AB9A089595B388E0892711
:1008E00085BB0895A39A0895A3980895AC98089598
:1008F00095B380E1892785BB0895A49A0895A498AB
:100900000895662341F0DC01ED91FC910684F785A2
:10091000E02D09950895DC01ED91FC910088F189A5
:10092000E02D0995089583B3829581700895AC9A5E
:10093000089595B380E1892785BB0895A49A089509
:10094000A4980895AD98089595B380E2892785BB52
:100950000895A59A0895A5980895662341F0DC01AD
:10096000ED91FC910684F785E02D09950895DC0151
:10097000ED91FC910088F189E02D0995089583B3EC
:1009800085FB882780F90895AD9A089595B380E294
:10099000892785BB0895A59A0895A5980895AE9ACC
:1009A0000895AE98089595B380E4892785BB08958E
:1009B000A69A0895A6980895662341F0DC01ED916A
:1009C000FC910684F785E02D09950895DC01ED91F1
:1009D000FC910088F189E02D0995089583B386FB89
:1009E000882780F9089595B380E4892785BB089509
:1009F000A6980895AF9A0895AF98089585B3805842
:100A000085BB0895A79A0895A7980895662341F095
:100A1000DC01ED91FC910684F785E02D09950895A0
:100A2000DC01ED91FC910088F189E02D0995089594
:100A300081E09F9B80E0089585B3805885BB089531
:100A4000A7980895C79A0895C798089588B38058BD
:100A500088BB0895BF9A0895BF980895662341F012
:100A6000DC01ED91FC910684F785E02D0995089550
:100A7000DC01ED91FC910088F189E02D0995089544
:100A800081E0B79B80E00895C79A0895C7980895BC
:100A900088B3805888BB0895BF9A0895BF98089579
:100AA000C69A0895C698089598B380E4892788BBAC
:100AB0000895BE9A0895BE980895662341F0DC011A
:100AC000ED91FC910684F785E02D09950895DC01F0
:100AD000ED91FC910088F189E02D0995089586B388
:100AE00086FB882780F90895C69A0895C6980895C8
:100AF00098B380E4892788BB0895BE9A0895BE986C
:100B00000895C59A0895C598089598B380E28927F5
:100B100088BB0895BD9A0895BD980895662341F055
:100B2000DC01ED91FC910684F785E02D099508958F
:100B3000DC01ED91FC910088F189E02D0995089583
:100B400086B385FB882780F90895C59A0895C598CE
:100B5000089598B380E2892788BB0895BD9A0895C7
:100B6000BD980895C49A0895C498089598B380E1F3
:100B7000892788BB0895BC9A0895BC980895662378
:100B800041F0DC01ED91FC910684F785E02D09959B
:100B90000895DC01ED91FC910088F189E02D099523
:100BA000089586B3829581700895C49A0895C49873
:100BB000089598B380E1892788BB0895BC9A089569
:100BC000BC980895C39A0895C398089598B388E08F
:100BD000892788BB0895BB9A0895BB98089566231A
:100BE00041F0DC01ED91FC910684F785E02D09953B
:100BF0000895DC01ED91FC910088F189E02D0995C3
:100C0000089586B383FB882780F90895C39A0895D1
:100C1000C398089598B388E0892788BB0895BB9A44
:100C20000895BB980895C29A0895C298089598B3FC
:100C300084E0892788BB0895BA9A0895BA980895E0
:100C4000662341F0DC01ED91FC910684F785E02DEF
:100C500009950895DC01ED91FC910088F189E02D62
:100C60000995089586B382FB882780F90895C29A72
:100C70000895C298089598B384E0892788BB0895A1
:100C8000BA9A0895BA980895C19A0895C198089596
:100C900098B382E0892788BB0895B99A0895B998D6
:100CA0000895662341F0DC01ED91FC910684F785FF
:100CB000E02D09950895DC01ED91FC910088F18902
:100CC000E02D0995089586B3869581700895C19A9F
:100CD0000895C198089598B382E0892788BB089544
:100CE000B99A0895B9980895C09A0895C09808953A
:100CF00098B381E0892788BB0895B89A0895B89879
:100D00000895662341F0DC01ED91FC910684F7859E
:100D1000E02D09950895DC01ED91FC910088F189A1
:100D2000E02D0995089586B381700895C09A0895BD
:100D3000C098089598B381E0892788BB0895B89A30
:100D40000895B8980895DA9A0895DA9808959BB3AB
:100D500084E089278BBB0895D29A0895D29808958C
:100D6000662341F0DC01ED91FC910684F785E02DCE
:100D700009950895DC01ED91FC910088F189E02D41
:100D80000995089589B382FB882780F90895DA9A36
:100D90000895DA9808959BB384E089278BBB089562
:100DA000D29A0895D2980895D99A0895D998089515
:100DB0009BB382E089278BBB0895D19A0895D1987F
:100DC0000895662341F0DC01ED91FC910684F785DE
:100DD000E02D09950895DC01ED91FC910088F189E1
:100DE000E02D0995089589B3869581700895D99A63
:100DF0000895D99808959BB382E089278BBB089505
:100E0000D19A0895D1980895D89A0895D8980895B8
:100E10009BB381E089278BBB0895D09A0895D09821
:100E20000895662341F0DC01ED91FC910684F7857D
:100E3000E02D09950895DC01ED91FC910088F18980
:100E4000E02D0995089589B381700895D89A089581
:100E5000D89808959BB381E089278BBB0895D09AD9
:100E60000895D09808950E94A30908950E94A309A7
:100E700008950E94A30908950E94A30908950E945D
:100E8000A30908950E94A30908950E94A309089543
:100E90000E94A30908950E94A30908950E94A3092E
:100EA00008950E94A30908950E94A30908950E942D
:100EB000A30908950E94A30908950E94A309089513
:100EC0000E94A30908950E94A30908950E94A309FE
:100ED00008950E94A30908950E9480070C94610858
:100EE0000E945A0858F00E94530840F029F45F3FCE
:100EF00029F00C944A0851110C9495080C94500850
:100F00000E94720868F39923B1F3552391F3951B5E
:100F1000550BBB27AA2762177307840738F09F5F1A
:100F20005F4F220F331F441FAA1FA9F335D00E2E87
:100F30003AF0E0E832D091505040E695001CCAF7F4
:100F40002BD0FE2F29D0660F771F881FBB1F2617B7
:100F500037074807AB07B0E809F0BB0B802DBF018E
:100F6000FF2793585F4F3AF09E3F510578F00C945D
:100F70004A080C9495085F3FE4F3983ED4F38695B5
:100F800077956795B795F7959F5FC9F7880F911D7E
:100F90009695879597F90895E1E0660F771F881F6A
:100FA000BB1F621773078407BA0720F0621B730B1D
:100FB000840BBA0BEE1F88F7E09508950E947A081B
:100FC00088F09F5798F0B92F9927B751B0F0E1F00A
:100FD000660F771F881F991F1AF0BA95C9F714C0BA
:100FE000B13091F00E949408B1E008950C949408F7
:100FF000672F782F8827B85F39F0B93FCCF38695F3
:1010000077956795B395D9F73EF49095809570954F
:1010100061957F4F8F4F9F4F0895E89409C097FBCC
:101020003EF490958095709561957F4F8F4F9F4FBF
:101030009923A9F0F92F96E9BB279395F695879503
:1010400077956795B795F111F8CFFAF4BB0F11F4C6
:1010500060FF1BC06F5F7F4F8F4F9F4F16C088236D
:1010600011F096E911C0772321F09EE8872F762FA3
:1010700005C0662371F096E8862F70E060E02AF0E4
:101080009A95660F771F881FDAF7880F96958795D0
:1010900097F9089597F99F6780E870E060E00895F8
:1010A0009FEF80EC089500240A9416161706180680
:1010B0000906089500240A9412161306140605065C
:1010C0000895092E0394000C11F4882352F0BB0FED
:1010D00040F4BF2B11F460FF04C06F5F7F4F8F4F50
:1010E0009F4F089557FD9058440F551F59F05F3F8B
:1010F00071F04795880F97FB991F61F09F3F79F03A
:1011000087950895121613061406551FF2CF4695BB
:10111000F1DF08C0161617061806991FF1CF86953D
:101120007105610508940895E894BB276627772721
:10113000CB0197F908950E94AE080C9461080E94B3
:10114000530838F00E945A0820F0952311F00C94AF
:101150004A080C94500811240C9495080E947208B7
:1011600070F3959FC1F3950F50E0551F629FF001FA
:10117000729FBB27F00DB11D639FAA27F00DB11D13
:10118000AA1F649F6627B00DA11D661F829F22279C
:10119000B00DA11D621F739FB00DA11D621F839F23
:1011A000A00D611D221F749F3327A00D611D231FF9
:1011B000849F600D211D822F762F6A2F11249F5747
:1011C00050409AF0F1F088234AF0EE0FFF1FBB1F4A
:1011D000661F771F881F91505040A9F79E3F510509
:1011E00080F00C944A080C9495085F3FE4F3983E15
:1011F000D4F3869577956795B795F795E7959F5FB3
:10120000C1F7FE2B880F911D9695879597F9089544
:10121000EE0FFF1F0590F491E02D0994CF93DF931B
:101220008230910510F482E090E0E0915603F09155
:10123000570320E030E0C0E0D0E0309711F140816A
:10124000518148175907C0F04817590761F4828146
:101250009381209719F09B838A832BC09093570327
:101260008093560326C02115310519F04217530704
:1012700018F49A01BE01DF01EF010280F381E02D35
:10128000DCCF2115310509F1281B390B243031053C
:1012900090F412968D919C9113976115710521F030
:1012A000FB019383828304C090935703809356037A
:1012B000FD01329644C0FD01E20FF31F819391932B
:1012C000225031092D933C933AC020915403309120
:1012D0005503232B41F420918800309189003093ED
:1012E00055032093540320918600309187002115E7
:1012F000310541F42DB73EB740918A0050918B00E3
:10130000241B350BE0915403F0915503E217F307CA
:10131000A0F42E1B3F0B2817390778F0AC014E5F65
:101320005F4F2417350748F04E0F5F1F509355034A
:10133000409354038193919302C0E0E0F0E0CF0129
:10134000DF91CF9108950F931F93CF93DF93009771
:1013500009F48CC0FC01329713821282009156036B
:10136000109157030115110581F420813181820FFD
:10137000931F20915403309155032817390779F5AD
:10138000F0935503E093540371C0D80140E050E05E
:10139000AE17BF0750F412962D913C911397AD01F3
:1013A0002115310509F1D901F3CF9D01DA0133830C
:1013B000228360817181860F971F8217930769F4DA
:1013C000EC0128813981260F371F2E5F3F4F318373
:1013D00020838A819B8193838283452B29F4F09318
:1013E0005703E093560342C01396FC93EE93129773
:1013F000ED01499159919E01240F351FE217F30722
:1014000071F480819181840F951F029611969C93AF
:101410008E938281938113969C938E931297E0E032
:10142000F0E0D80112968D919C911397009719F0D6
:10143000F8018C01F6CF8D919C9198012E5F3F4F62
:10144000820F931F209154033091550328173907B9
:1014500069F4309729F4109257031092560302C092
:10146000138212821093550300935403DF91CF919E
:101470001F910F91089510E0CBE2D0E004C0FE016F
:101480000E9408092196CC32D107C9F7F894FFCF02
:10149000D002B00290027002500230021002F0013D
:1014A000D001B00190017001500130011001F00035
:1014B000D000B000900000005803200000000000A1
:1014C0000407060708070D070F071107230726075C
:1014D00028072A072F073107C40369070000000007
:1014E000D406D606D806DD06DF06E106F306F706C3
:1014F000F906FB0600070207C303660700000000A9
:10150000A306A506A706AC06AE06B006C206C70629
:10151000C906CB06D006D206C2036307000000004E
:101520007406760678067D067F0681069306960683
:1015300098069A069F06A106C103600700000000F6
:101540004406460648064D064F06510663066706E2
:1015500069066B0670067206C0035D070000000096
:101560001306150617061C061E0620063206370649
:1015700039063B0640064206BF035A07000000003A
:10158000E205E405E605EB05ED05EF0501060606B7
:1015900008060A060F061106BE03570700000000E2
:1015A000B205B405B605BB05BD05BF05D105D5051A
:1015B000D705D905DE05E005BD035407000000008E
:1015C0008105830585058A058C058E05A005A50581
:1015D000A705A905AE05B005BC0351070000000032
:1015E00050055205540559055B055D056F057405E9
:1015F000760578057D057F05BB034E0700000000DA
:101600002205240526052A052C052E05400544053E
:10161000460548054C054E05BA034B07000000007F
:10162000FA04FC04FE0402050405060518059003EF
:1016300092031C05AE032005B90348070000000013
:10164000CF04D104D304D804DA04DC04EE049403F8
:101650008E03F304B003F804B8034507000000004C
:10166000A003A204A404A904AB04AD04BF04C404F1
:10167000AC03C604CB04CD04B7034207000000004E
:101680009E03760478047D047F0481049304970408
:10169000AA0399049E04A004B6033F0700000000BB
:1016A0009C0349044B0450045204540466046B0424
:1016B000A8036D0472047404B5033C070000000025
:1016C0009A031C041E0423042504270439043E0441
:1016D000A603400445044704B40339070000000092
:1016E0009803F003F203F703F903FB030D0411045D
:1016F000A403130418041A04B303360700000000FF
:101700009603C503C703CC03CE03D003E203E5036E
:0C171000A203E703EC03EE03B20333076F
:00000001FF
