:100000000C942C000C9454000C9454000C94540048
:100010000C9454000C9454000C9454000C94540010
:100020000C9454000C9454000C9454000C94540000
:100030000C9454000C9454000C9454000C945400F0
:100040000C9454000C9454000C9454000C945C00D8
:100050000C9454001703510311241FBECFE5D4E0C4
:10006000DEBFCDBF13E0A0E6B0E0E2E8F4E102C0FD
:1000700005900D92AE30B107D9F723E0AEE0B3E0C2
:1000800001C01D92A334B207E1F710E0CBE2D0E04B
:1000900004C02197FE010E940109CA32D107C9F7A5
:1000A0000E9412030C94340A0C9400000E94070969
:1000B00008950E949C0908951F920F920FB60F9207
:1000C00011242F933F934F935F936F937F938F935D
:1000D0009F93AF93BF93EF93FF93E0913E03F0E0C4
:1000E000EE0FFF1FE25DFC4F80819181009731F0A0
:1000F000DC011296ED91FC911397099580913E03D6
:100100008F5F883018F480933E0302C010923E0344
:10011000FF91EF91BF91AF919F918F917F916F91DF
:100120005F914F913F912F910F900FBE0F901F90B5
:10013000189580910E0390910F0381309105B9F0CD
:100140001CF4892B39F0089582309105F1F0039762
:1001500069F1089581E090E090930F0380930E037E
:10016000AE98AF9A8FEF93E097BD86BD0895AF9894
:10017000AE9AECE1F3E014828281858382E090E024
:1001800090930F0380930E030895AF98AE9883E089
:1001900090E090930F0380930E0380911C03909145
:1001A0001D0390932D0380932C03089510920F0349
:1001B00010920E03089585B38F6385BB80911A0357
:1001C00090911B0390FF08C081E090E090930F0393
:1001D00080930E030E94990080911A0390911B0353
:1001E00087FF08C082E090E090930F0380930E0396
:1001F0000E94990080911A0390911B0393FDA89887
:1002000080911A0390911B0399230CF4A998809173
:100210001A0390911B0396FDAA9880911A0390915E
:100220001B0395FDAB9880911A0390911B0391FDE0
:10023000AC9880911A0390911B0385FDAD980895A9
:100240000F931F93CF93DF93C4E1D3E08A819B8107
:10025000DC01ED91FC910684F785E02D09958A81FA
:100260009B81DC01ED91FC910088F189E02D0995DD
:1002700081E090E09F838E8307E110E0888199817F
:10028000DC01ED91FC910088F189E02D09958E81CA
:100290009F81880F991F9F838E838C819D81DC01B4
:1002A000ED91FC910484F585E02D0995811105C03F
:1002B0008E819F8101969F838E8388819981DC0145
:1002C000ED91FC910684F785E02D09950150110907
:1002D000A9F680911A0390911B030E94DB00DF9125
:1002E000CF911F910F91089580E291E090931303B5
:1002F0008093120380912E0390912F03892B61F03C
:10030000E0E3F3E04EE353E081E090E0BC012191B3
:100310003191232B79F402C060E070E0FB01EE0F15
:10032000FF1FE25DFC4FA0E1B3E0B183A0836D93BA
:100330007C9308950196E417F50741F708958D9A87
:100340008EB5877E8EBD8FB58C7F8FBD8FB5826059
:100350008FBD8EB580618EBD8FB580688FBD8EB527
:10036000887F8EBD8EB581608EBD8FEF9FEF97BD6C
:1003700086BD1BBC1ABC08958F929F92AF92BF920C
:10038000CF92DF92EF92FF920F931F93CF93DF9361
:10039000CCE1D3E088859985DC01ED91FC91008862
:1003A000F189E02D09958A818B838FEF8FB9779B37
:1003B000FECF8FB190E0880F991F880F991F880F8B
:1003C000991F80931E038FEF8FB9779BFECF8FB15C
:1003D000CCE1D3E090E09595879595958795959597
:1003E000879595958795959587952A81822B8A8300
:1003F00088859985DC01ED91FC910684F785E02DD7
:1004000009958B81813C38F090911E039F3318F43D
:100410009C819F5F9C8360911E03613C38F08F3309
:1004200028F4ECE1F3E0848181508483ECE1F3E093
:10043000848170E0782B8581EB01C81BD109D183C1
:10044000C08380912C0390912D038C179D0740F160
:1004500066B577B500912C0310912D0380E090E0F4
:100460000E9406086B017C01BE0180E090E00E94C2
:1004700006084B015C01B80180E090E00E9406088C
:100480009B01AC01C501B4010E9465079B01AC0151
:10049000C701B6010E9494080E94D7077BBD6ABDC0
:1004A000DF91CF911F910F91FF90EF90DF90CF9050
:1004B000BF90AF909F908F9008958FEF8ABB84BBC1
:1004C00081BB87BB88BB85BB82BBA79AA69A0895D0
:1004D000CF93DF930E945D02CCE1D3E088859985BC
:1004E000DC01ED91FC910488F589E02D09958C855E
:1004F0009D85DC01ED91FC910688F789E02D099539
:100500008E819F81DC01ED91FC910488F589E02DBD
:1005100009958A859B85DC01ED91FC910488F5891C
:10052000E02D09958E859F85DC01ED91FC91048875
:10053000F589E02D099588859985DC01ED91FC917F
:100540000684F785E02D09951DB86C9A6E9A8EB1D8
:100550008EB988859985DC01ED91FC910088F1893F
:10056000E02D09958FEF8FB9779BFECF8FEF8FB975
:10057000779BFECFCCE1D3E088859985DC01ED91B6
:10058000FC910684F785E02D099588859985DC0125
:10059000ED91FC910684F785E02D09950E94740188
:1005A00087E08CBF83B78E7F83BF83B7886083BFAC
:1005B00089B78E7F89BF89B7826089BF83B7887FFB
:1005C00083BF83B7846083BF78940E949F01C4E196
:1005D000D3E088819981DC01ED91FC910488F58953
:1005E000E02D09958A819B81DC01ED91FC910488C5
:1005F000F589E02D09958C819D81DC01ED91FC91BF
:100600000688F789E02D09958A819B81DC01ED91AF
:10061000FC910088F189E02D09950E949900DF91F5
:10062000CF9108950E9468020E94BC01FDCF1092F4
:100630003E03EEE2F3E08EE393E011921192E817AD
:10064000F907D9F7ECE1F3E01182108212821382EC
:100650001482158284E790E09587848786E790E08E
:10066000978386838AE790E09187808788E790E088
:100670009787868782E790E093878287E4E1F3E0BB
:1006800082E890E09183808384E890E09383828382
:1006900086E890E0958384831092130310921203EE
:1006A00008950895AE980895AF9A0895AF98089563
:1006B000AE9A0895A89A0895A99A0895AA9A0895B5
:1006C000AB9A0895AC9A0895AD9A0895A8980895A4
:1006D000A9980895AA980895AB980895AC9808959C
:1006E000AD9808958D9A0895A79A0895A69A0895A9
:1006F0000895089508950895089508950895089512
:100700000895089508950895089508950895089501
:100710000895089508950895959A089595980895CF
:1007200092B380E2892782BB08958D9A08958D98AF
:100730000895662341F0DC01ED91FC910684F78574
:10074000E02D09950895DC01ED91FC910088F18977
:10075000E02D0995089580B385FB882780F90895D9
:10076000959A08959598089592B380E2892782BB5F
:1007700008958D980895A898089595B381E08927E4
:1007800085BB0895A09A0895A0980895662341F026
:10079000DC01ED91FC910684F785E02D0995089523
:1007A000DC01ED91FC910088F189E02D0995089517
:1007B00083B381700895A89A089595B381E089273D
:1007C00085BB0895A09A0895A0980895A9980895C2
:1007D00095B382E0892785BB0895A19A0895A198D1
:1007E0000895662341F0DC01ED91FC910684F785C4
:1007F000E02D09950895DC01ED91FC910088F189C7
:10080000E02D0995089583B3869581700895A99A7E
:10081000089595B382E0892785BB0895A19A08952C
:10082000A1980895AA98089595B384E0892785BB77
:100830000895A29A0895A2980895662341F0DC01D4
:10084000ED91FC910684F785E02D09950895DC0172
:10085000ED91FC910088F189E02D0995089583B30D
:1008600082FB882780F90895AA9A089595B384E0B9
:10087000892785BB0895A29A0895A2980895AB98F8
:10088000089595B388E0892785BB0895A39A0895B4
:10089000A3980895662341F0DC01ED91FC91068454
:1008A000F785E02D09950895DC01ED91FC91008814
:1008B000F189E02D0995089583B383FB882780F99A
:1008C0000895AB9A089595B388E0892785BB08956C
:1008D000A39A0895A3980895AC98089595B380E1DC
:1008E000892785BB0895A49A0895A498089566233E
:1008F00041F0DC01ED91FC910684F785E02D09952E
:100900000895DC01ED91FC910088F189E02D0995B5
:10091000089583B3829581700895AC9A089595B334
:1009200080E1892785BB0895A49A0895A498089525
:10093000AD98089595B380E2892785BB0895A59A5F
:100940000895A5980895662341F0DC01ED91FC918E
:100950000684F785E02D09950895DC01ED91FC9161
:100960000088F189E02D0995089583B385FB8827D8
:1009700080F90895AD9A089595B380E2892785BBE3
:100980000895A59A0895A5980895AE9A0895AE98E9
:10099000089595B380E4892785BB0895A69A0895A4
:1009A000A6980895662341F0DC01ED91FC91068440
:1009B000F785E02D09950895DC01ED91FC91008803
:1009C000F189E02D0995089583B386FB882780F986
:1009D000089595B380E4892785BB0895A698089566
:1009E000AF9A0895AF98089585B3805885BB089550
:1009F000A79A0895A7980895662341F0DC01ED9128
:100A0000FC910684F785E02D09950895DC01ED91B0
:100A1000FC910088F189E02D0995089581E09F9B64
:100A200080E0089585B3805885BB0895A798089500
:100A3000C79A0895C798089588B3805888BB0895C9
:100A4000BF9A0895BF980895662341F0DC01ED91A7
:100A5000FC910684F785E02D09950895DC01ED9160
:100A6000FC910088F189E02D0995089581E0B79BFC
:100A700080E00895C79A0895C798089588B380586C
:100A800088BB0895BF9A0895BF980895C69A08959F
:100A9000C698089598B380E4892788BB0895BE9AC4
:100AA0000895BE980895662341F0DC01ED91FC9114
:100AB0000684F785E02D09950895DC01ED91FC9100
:100AC0000088F189E02D0995089586B386FB882773
:100AD00080F90895C69A0895C698089598B380E459
:100AE000892788BB0895BE9A0895BE980895C59A2F
:100AF0000895C598089598B380E2892788BB089522
:100B0000BD9A0895BD980895662341F0DC01ED91EA
:100B1000FC910684F785E02D09950895DC01ED919F
:100B2000FC910088F189E02D0995089586B385FB35
:100B3000882780F90895C59A0895C598089598B3AF
:100B400080E2892788BB0895BD9A0895BD980895CD
:100B5000C49A0895C498089598B380E1892788BB02
:100B60000895BC9A0895BC980895662341F0DC016D
:100B7000ED91FC910684F785E02D09950895DC013F
:100B8000ED91FC910088F189E02D0995089586B3D7
:100B9000829581700895C49A0895C498089598B371
:100BA00080E1892788BB0895BC9A0895BC98089570
:100BB000C39A0895C398089598B388E0892788BB9D
:100BC0000895BB9A0895BB980895662341F0DC010F
:100BD000ED91FC910684F785E02D09950895DC01DF
:100BE000ED91FC910088F189E02D0995089586B377
:100BF00083FB882780F90895C39A0895C3980895C0
:100C000098B388E0892788BB0895BB9A0895BB985C
:100C10000895C29A0895C298089598B384E08927E8
:100C200088BB0895BA9A0895BA980895662341F04A
:100C3000DC01ED91FC910684F785E02D099508957E
:100C4000DC01ED91FC910088F189E02D0995089572
:100C500086B382FB882780F90895C29A0895C298C6
:100C6000089598B384E0892788BB0895BA9A0895B7
:100C7000BA980895C19A0895C198089598B382E0EA
:100C8000892788BB0895B99A0895B998089566236D
:100C900041F0DC01ED91FC910684F785E02D09958A
:100CA0000895DC01ED91FC910088F189E02D099512
:100CB000089586B3869581700895C19A0895C19864
:100CC000089598B382E0892788BB0895B99A08955A
:100CD000B9980895C09A0895C098089598B381E08E
:100CE000892788BB0895B89A0895B898089566230F
:100CF00041F0DC01ED91FC910684F785E02D09952A
:100D00000895DC01ED91FC910088F189E02D0995B1
:100D1000089586B381700895C09A0895C098089583
:100D200098B381E0892788BB0895B89A0895B89848
:100D30000895DA9A0895DA9808959BB384E0892794
:100D40008BBB0895D29A0895D2980895662341F0F6
:100D5000DC01ED91FC910684F785E02D099508955D
:100D6000DC01ED91FC910088F189E02D0995089551
:100D700089B382FB882780F90895DA9A0895DA9872
:100D800008959BB384E089278BBB0895D29A089578
:100D9000D2980895D99A0895D99808959BB382E07E
:100DA00089278BBB0895D19A0895D1980895662319
:100DB00041F0DC01ED91FC910684F785E02D099569
:100DC0000895DC01ED91FC910088F189E02D0995F1
:100DD000089589B3869581700895D99A0895D99810
:100DE00008959BB382E089278BBB0895D19A08951B
:100DF000D1980895D89A0895D89808959BB381E022
:100E000089278BBB0895D09A0895D09808956623BA
:100E100041F0DC01ED91FC910684F785E02D099508
:100E20000895DC01ED91FC910088F189E02D099590
:100E3000089589B381700895D89A0895D89808952F
:100E40009BB381E089278BBB0895D09A0895D098F1
:100E500008950E949C0908950E949C0908950E948B
:100E60009C0908950E949C0908950E949C09089578
:100E70000E949C0908950E949C0908950E949C0963
:100E800008950E949C0908950E949C0908950E945B
:100E90009C0908950E949C0908950E949C09089548
:100EA0000E949C0908950E949C0908950E949C0933
:100EB00008950E949C0908950E949C0908950E942B
:100EC0009C0908950E949C0908950E9479070C943A
:100ED0005A080E94530858F00E944C0840F029F428
:100EE0005F3F29F00C94430851110C948E080C9428
:100EF00049080E946B0868F39923B1F3552391F3D5
:100F0000951B550BBB27AA2762177307840738F078
:100F10009F5F5F4F220F331F441FAA1FA9F335D0D5
:100F20000E2E3AF0E0E832D091505040E695001C89
:100F3000CAF72BD0FE2F29D0660F771F881FBB1F43
:100F4000261737074807AB07B0E809F0BB0B802D21
:100F5000BF01FF2793585F4F3AF09E3F510578F04D
:100F60000C9443080C948E085F3FE4F3983ED4F34E
:100F7000869577956795B795F7959F5FC9F7880F21
:100F8000911D9695879597F90895E1E0660F771F73
:100F9000881FBB1F621773078407BA0720F0621B04
:100FA000730B840BBA0BEE1F88F7E09508950E942F
:100FB000730888F09F5798F0B92F9927B751B0F070
:100FC000E1F0660F771F881F991F1AF0BA95C9F7CD
:100FD00014C0B13091F00E948D08B1E008950C94D6
:100FE0008D08672F782F8827B85F39F0B93FCCF389
:100FF000869577956795B395D9F73EF4909580954A
:10100000709561957F4F8F4F9F4F0895E89409C069
:1010100097FB3EF490958095709561957F4F8F4F2B
:101020009F4F9923A9F0F92F96E9BB279395F69541
:10103000879577956795B795F111F8CFFAF4BB0FBF
:1010400011F460FF1BC06F5F7F4F8F4F9F4F16C023
:10105000882311F096E911C0772321F09EE8872FAD
:10106000762F05C0662371F096E8862F70E060E069
:101070002AF09A95660F771F881FDAF7880F9695E2
:10108000879597F9089597F99F6780E870E060E089
:1010900008959FEF80EC089500240A941616170611
:1010A00018060906089500240A9412161306140659
:1010B00005060895092E0394000C11F4882352F0BC
:1010C000BB0F40F4BF2B11F460FF04C06F5F7F4F74
:1010D0008F4F9F4F089557FD9058440F551F59F05B
:1010E0005F3F71F04795880F97FB991F61F09F3F15
:1010F00079F087950895121613061406551FF2CF3E
:101100004695F1DF08C0161617061806991FF1CF8D
:1011100086957105610508940895E894BB276627B4
:101120007727CB0197F908950E94A7080C945A08D5
:101130000E944C0838F00E94530820F0952311F0CB
:101140000C9443080C94490811240C948E080E94B6
:101150006B0870F3959FC1F3950F50E0551F629F88
:10116000F001729FBB27F00DB11D639FAA27F00D00
:10117000B11DAA1F649F6627B00DA11D661F829F27
:101180002227B00DA11D621F739FB00DA11D621F0C
:10119000839FA00D611D221F749F3327A00D611D29
:1011A000231F849F600D211D822F762F6A2F11240B
:1011B0009F5750409AF0F1F088234AF0EE0FFF1F3E
:1011C000BB1F661F771F881F91505040A9F79E3F95
:1011D000510580F00C9443080C948E085F3FE4F3B3
:1011E000983ED4F3869577956795B795F795E795EB
:1011F0009F5FC1F7FE2B880F911D9695879597F9F4
:101200000895EE0FFF1F0590F491E02D0994CF9300
:10121000DF938230910510F482E090E0E091410389
:10122000F091420320E030E0C0E0D0E0309711F1CF
:101230004081518148175907C0F04817590761F498
:1012400082819381209719F09B838A832BC090938E
:1012500042038093410326C02115310519F042173E
:10126000530718F49A01BE01DF01EF010280F381F8
:10127000E02DDCCF2115310509F1281B390B243075
:10128000310590F412968D919C911397611571051B
:1012900021F0FB019383828304C0909342038093E7
:1012A0004103FD01329644C0FD01E20FF31F81931B
:1012B0009193225031092D933C933AC020913F03E2
:1012C00030914003232B41F420918A0030918B0010
:1012D0003093400320933F03209188003091890090
:1012E0002115310541F42DB73EB740918C00509146
:1012F0008D00241B350BE0913F03F0914003E21772
:10130000F307A0F42E1B3F0B2817390778F0AC0128
:101310004E5F5F4F2417350748F04E0F5F1F509305
:10132000400340933F038193919302C0E0E0F0E0DB
:10133000CF01DF91CF9108950F931F93CF93DF9348
:10134000009709F48CC0FC0132971382128200913D
:101350004103109142030115110581F4208131816F
:10136000820F931F20913F033091400328173907C4
:1013700079F5F0934003E0933F0371C0D80140E05A
:1013800050E0AE17BF0750F412962D913C91139781
:10139000AD012115310509F1D901F3CF9D01DA0124
:1013A0003383228360817181860F971F8217930791
:1013B00069F4EC0128813981260F371F2E5F3F4FDA
:1013C000318320838A819B8193838283452B29F4F7
:1013D000F0934203E093410342C01396FC93EE93D3
:1013E0001297ED01499159919E01240F351FE21783
:1013F000F30771F480819181840F951F02961196F5
:101400009C938E938281938113969C938E931297D3
:10141000E0E0F0E0D80112968D919C91139700972F
:1014200019F0F8018C01F6CF8D919C9198012E5FF7
:101430003F4F820F931F20913F03309140032817A5
:10144000390769F4309729F410924203109241034E
:1014500002C0138212821093400300933F03DF9176
:10146000CF911F910F91089510E0CBE2D0E004C01E
:10147000FE010E9401092196CC32D107C9F7F894E8
:02148000FFCF9C
:10148200F202D202B202920272025202320212023A
:10149200F201D201B2019201720152013201120132
:1014A200F200D200B20092000000430320000000CC
:1014B2000000FA06FC06FE060307050707071907E0
:1014C2001C071E072007250727078B03620700005A
:1014D2000000CA06CC06CE06D306D506D706E90614
:1014E200ED06EF06F106F606F8068A035F0700002E
:1014F200000099069B069D06A206A406A606B8064B
:10150200BD06BF06C106C606C80689035C07000001
:1015120000006A066C066E06730675067706890673
:101522008C068E06900695069706880359070000DA
:1015320000003A063C063E064306450647065906A3
:101542005D065F06610666066806870356070000A9
:10155200000009060B060D061206140616062806DA
:101562002D062F063106360638068603530700007D
:101572000000D805DA05DC05E105E305E505F70518
:10158200FC05FE0500060506070685035007000058
:101592000000A805AA05AC05B105B305B505C70548
:1015A200CB05CD05CF05D405D60584034D07000034
:1015B2000000770579057B0580058205840596057F
:1015C2009B059D059F05A405A60583034A07000008
:1015D2000000460548054A054F05510553056505B6
:1015E2006A056C056E0573057505820347070000E1
:1015F200000018051A051C052005220524053605DC
:101602003A053C053E0542054405810344070000B6
:101612000000F004F204F404F804FA04FC040E05D9
:101622005403560312057403160580034107000094
:101632000000C504C704C904CE04D004D204E404E3
:1016420058035203E9047603EE047F033E070000C9
:101652000000640398049A049F04A104A304B5043F
:10166200BA047003BC04C104C3047E033B07000038
:10167200000062036C046E04730475047704890429
:101682008D046E038F04940496047D0338070000D2
:10169200000060033F044104460448044A045C0419
:1016A20061046C03630468046A047C033507000068
:1016B20000005E031204140419041B041D042F0409
:1016C20034046A0336043B043D047B033207000002
:1016D20000005C03E603E803ED03EF03F1030304F8
:1016E2000704680309040E0410047A032F0700009C
:1016F20000005A03BB03BD03C203C403C603D803DD
:10170200DB036603DD03E203E40379032C07000035
:1017120000008C038E039003950397039903AB0398
:0E172200B003B203B4037203B90378032907BE
:00000001FF
