:1000000012C021C020C01FC01EC01DC01CC01BC00C
:100010001AC019C018C017C016C015C014C013C02C
:1000200012C011C010C011241FBECFE5D4E0DEBF46
:10003000CDBF20E0A0E6B0E001C01D92A036B2071F
:10004000E1F702D01DC0DCCF8FEF84BBA09AA19A4C
:10005000A29AA39AA49AA59AA69AB99ABA9ABB9A6E
:10006000BC9ABD9ABE9AA69ABF9AB89A8F9A889A55
:10007000A89AA99AAE9AC09AC79A909A979AE6CFE8
:04008000F894FFCF22
:00000001FF
