:100000000C942A000C9447000C9447000C94470071
:100010000C9447000C9447000C9447000C94470044
:100020000C9447000C9447000C9447000C94470034
:100030000C9447000C9447000C9447000C94470024
:100040000C9447000C9447000C9447000C94470014
:100050000C94470011241FBECFE5D4E0DEBFCDBF16
:1000600010E0A0E6B0E0E8ECF0E002C005900D92F0
:10007000A036B107D9F720E0A0E6B0E001C01D929C
:10008000A036B207E1F70E9449000C9462000C947C
:1000900000008FEF97B387BBC098C19A2FEF30E76E
:1000A00092E0215030409040E1F700C00000C1983C
:1000B0002FEF30E792E0215030409040E1F700C050
:0800C0000000E8CFF894FFCF27
:00000001FF
