S01C00004D6F746F72536572766F436F6E74726F6C6C65722E73726563C4
S11300000C942B000C9453000C9453000C94530048
S11300100C9453000C9453000C9453000C94530010
S11300200C9453000C9453000C9453000C94530000
S11300300C9453000C9453000C9453000C945300F0
S11300400C9453000C9453000C9453000C947100C2
S11300500C9453001C0111241FBECFE5D4E0DEBF75
S1130060CDBF10E0A0E6B0E0E4EBF4E002C0059000
S11300700D92A636B107D9F720E0A6E6B0E001C09C
S11300801D92AE37B207E1F710E0CBE2D0E004C036
S11300902197FE010E942501CA32D107C9F70E94A7
S11300A0C3000C9458020C94000080917800909145
S11300B0790001969093790080937800809178007C
S11300C090917900069744F010927900109278008C
S11300D098B382E0892788BB08950C942B010C9473
S11300E0C0011F920F920FB60F9211242F933F93CA
S11300F04F935F936F937F938F939F93AF93BF932C
S1130100EF93FF9380917700E82FF0E0EE0FFF1F4D
S1130110E959FF4F0190F081E02D309719F00995CE
S1130120809177008F5F8830A0F01092770012BE24
S1130130FF91EF91BF91AF919F918F917F916F91BB
S11301405F914F913F912F910F900FBE0F901F9091
S1130150189580937700EBCF83B78E7F83BF83B7E7
S1130160846083BF88E08CBF83B78E7F83BF83B7EF
S1130170816083BF89B78E7F89BF89B7826089BF59
S1130180789412BE0895C098B89AB99A809167007D
S113019090916800892B09F44CC08091690090917A
S11301A06A00892B09F442C080916B0090916C0025
S11301B0892BC9F180916D0090916E00892B81F19A
S11301C080916F0090917000892B39F180917100BA
S11301D090917200892BF1F08091730090917400DA
S11301E0892BA9F08091750090917600892B19F0E4
S11301F00E94AC00FFCF87E090E0880F991FFC01BC
S1130200E959FF4F85E590E091838083F1CF86E043
S113021090E0F3CF85E090E0F0CF84E090E0EDCF84
S113022083E090E0EACF82E090E0E7CF81E090E0E5
S1130230E4CF80E090E0E1CFE7E6F0E0108A80E1EF
S1130240DF011D928A95E9F70895EE0FFF1F0590CF
S1130250F491E02D0994CF93DF938230910510F44B
S113026082E090E0E0917C00F0917D0020E030E0BD
S1130270C0E0D0E0309711F140815181481759070F
S1130280C0F04817590761F482819381209719F0CF
S11302909B838A832BC090937D0080937C0026C02F
S11302A02115310519F04217530718F49A01BE01BC
S11302B0DF01EF010280F381E02DDCCF2115310550
S11302C009F1281B390B2430310590F412968D91D5
S11302D09C9113976115710521F0FB01938382832F
S11302E004C090937D0080937C00FD01329644C04D
S11302F0FD01E20FF31F81939193225031092D9355
S11303003C933AC020917A0030917B00232B41F436
S1130310209162003091630030937B0020937A0037
S113032020916000309161002115310541F42DB711
S11303303EB74091640050916500241B350BE09159
S11303407A00F0917B00E217F307A0F42E1B3F0B19
S11303502817390778F0AC014E5F5F4F2417350733
S113036048F04E0F5F1F50937B0040937A008193B7
S1130370919302C0E0E0F0E0CF01DF91CF910895C6
S11303800F931F93CF93DF93009709F48CC0FC0164
S113039032971382128200917C0010917D00011526
S11303A0110581F420813181820F931F20917A00FD
S11303B030917B002817390779F5F0937B00E0939F
S11303C07A0071C0D80140E050E0AE17BF0750F486
S11303D012962D913C911397AD012115310509F128
S11303E0D901F3CF9D01DA013383228360817181C6
S11303F0860F971F8217930769F4EC0128813981CE
S1130400260F371F2E5F3F4F318320838A819B81C4
S113041093838283452B29F4F0937D00E0937C0041
S113042042C01396FC93EE931297ED0149915991B2
S11304309E01240F351FE217F30771F48081918127
S1130440840F951F029611969C938E9382819381BB
S113045013969C938E931297E0E0F0E0D8011296E5
S11304608D919C911397009719F0F8018C01F6CFA8
S11304708D919C9198012E5F3F4F820F931F209185
S11304807A0030917B002817390769F4309729F4F2
S113049010927D0010927C0002C01382128210938D
S11304A07B0000937A00DF91CF911F910F91089503
S10704B0F894FFCFEA
S10904B400007E002000A0
S9030000FC
