S01C00004D6F746F72536572766F436F6E74726F6C6C65722E73726563C4
S11300000C942C000C9454000C9454000C94540044
S11300100C9454000C9454000C9454000C9454000C
S11300200C9454000C9454000C9454000C945400FC
S11300300C9454000C9454000C9454000C945400EC
S11300400C9454000C9454000C9454000C9414011B
S11300500C9454009008660911241FBECFE5D4E027
S1130060DEBFCDBF11E0A0E6B0E0E8E7FAE102C0F0
S113007005900D92AE3FB107D9F722E0AEEFB1E0A3
S113008001C01D92A837B207E1F710E0CBE2D0E03F
S113009004C02197FE010E94E40BCA32D107C9F7BC
S11300A00E94E5020C942F0D0C9400009BB381E098
S11300B089278BBB08959091600281E08927809302
S11300C060020895CF93DF93D99AC2E1D2E08A897E
S11300D09B89DC01ED91FC910088F189E02D099563
S11300E081E08B87DF91CF910895D9988091240284
S11300F090912502DC01ED91FC910684F785E02DB9
S113010009950895809160028823C9F08091610265
S1130110909162028D3B924044F0109262021092E0
S113012061029BB384E089278BBB8091610290912B
S11301306202019690936202809361020895DA9AB2
S113014008958091080290910902DC01ED91FC91DF
S11301500484F585E02D0995811108C0E8E0F2E0FA
S11301608281938101969383828321C0E8E0F2E047
S113017022813381818590E08217930730F4E091E6
S11301800E02F0910F0209950EC0E8E0F2E0228120
S11301903381808590E08217930728F4E0910C0264
S11301A0F0910D02099510920B0210920A028091AF
S11301B0FE019091FF01DC01ED91FC910484F58531
S11301C0E02D0995811108C0EEEFF1E08281938161
S11301D00196938382830895EEEFF1E022813381C7
S11301E0818590E08217930730F4E0910402F09146
S11301F0050209950EC0EEEFF1E02281338180857E
S113020090E08217930728F4E0910202F091030230
S11302100995109201021092000208950E94EA0BBF
S113022008950E947F0C08951F920F920FB60F92AB
S113023011242F933F934F935F936F937F938F93E7
S11302409F93AF93BF93EF93FF93E0917302F0E01A
S1130250EE0FFF1FED59FD4F80819181009731F022
S1130260DC011296ED91FC9113970995809173022C
S11302708F5F883018F48093730202C01092730267
S1130280FF91EF91BF91AF919F918F917F916F916A
S11302905F914F913F912F910F900FBE0F901F9040
S11302A0189582E890E090935F0280935E028091BB
S11302B0630290916402892B61F0E5E6F2E043E782
S11302C052E081E090E0BC0121913191232B79F43B
S11302D002C060E070E0FB01EE0FFF1FED59FD4F1F
S11302E0ACE5B2E0B183A0836D937C9304C0019626
S11302F0E417F50741F781EA90E090935B0280935D
S11303005A028091630290916402892B61F0E5E6C0
S1130310F2E043E752E081E090E0BC0121913191A9
S1130320232B79F402C060E070E0FB01EE0FFF1FA5
S1130330ED59FD4FA8E5B2E0B183A0836D937C93A2
S113034008950196E417F50741F70895D09AD19AD4
S1130350D29AD89AD99ADA9A0895CF93DF930E94C1
S1130360A601C2E1D2E08E859F85DC01ED91FC916E
S11303700680F781E02D09958C859D85DC01ED9142
S1130380FC910680F781E02D09958A899B89DC011F
S1130390ED91FC910680F781E02D09958889998972
S11303A0DC01ED91FC910680F781E02D09958E89A1
S11303B09F89DC01ED91FC910680F781E02D099580
S11303C08C899D89DC01ED91FC910680F781E02DFB
S11303D00995888D998DDC01ED91FC910680F7815A
S11303E0E02D09958A899B89DC01ED91FC910088B7
S11303F0F189E02D099581E08B878E859F85DC014D
S1130400ED91FC910684F785E02D0995BFEF20E777
S113041082E0B15020408040E1F700C000008E85AA
S11304209F85DC01ED91FC910088F189E02D09950F
S1130430BFEF20E782E0B15020408040E1F700C0E8
S113044000008E859F85DC01ED91FC910684F78583
S1130450E02D09951DB86C9A6E9A8EB18EB98C8573
S11304609D85DC01ED91FC910088F189E02D0995D1
S11304708AA18FB9779BFECF80913B028FB9779B7E
S1130480FECF8FE38FB9779BFECF80913E028FB969
S1130490779BFECF809141028FB9779BFECF8091ED
S11304A03C0282608FB9779BFECF80913D028FB969
S11304B0779BFECF8091440281608FB9779BFECFFA
S11304C0809132028FB9779BFECF809145028FB91C
S11304D0779BFECF80913F028FB9779BFECF1FB8E9
S11304E0779BFECF809146028FB9779BFECF81E345
S11304F08FB9779BFECF8FE39CE90197F1F700C09A
S11305000000809143028FB9779BFECF8091360221
S11305108FB9779BFECF1FB8779BFECF80913902AE
S11305208FB9779BFECF80912E028FB9779BFECF38
S113053080913A028FB9779BFECF8FE18FB9779B79
S1130540FECF809137028FB9779BFECF82E18FB9BE
S1130550779BFECF809138028FB9779BFECF80E4E2
S11305608FB9779BFECF80912F028FB9779BFECFF7
S11305708FEF8FB9779BFECF809130028FB9779B35
S1130580FECF809132028FB9779BFECF80913502E6
S11305908FB9779BFECF0E94510187E08CBF83B750
S11305A08E7F83BF83B7886083BF89B78E7F89BFFF
S11305B089B7826089BF83B7887F83BF83B784602C
S11305C083BF7894DF91CF910895CF93DF931F92E7
S11305D0CDB7DEB70E94AD010F2EF0E3BF2EF02D94
S11305E022E132E0522ED9014B2E0F2EF1E3AF2E31
S11305F0F02DB9820F2EF3E16F2EF2E07F2EF02D55
S1130600312C212CB981B0931B0280911E02909150
S11306101F02DC01ED91FC910088F189E02D099520
S113062080913C028FB9779BFECFB0EBBFB9779B2B
S1130630FECF80913D028FB9779BFECF80911E0241
S113064090911F02DC01ED91FC910684F785E02D69
S113065009951FB8779BFECF46E050E062E170E059
S1130660852D942D0E94170D80911E0290911F02DA
S1130670DC01ED91FC910684F785E02D09951FB806
S1130680779BFECF1FB8779BFECFE2E1F2E01081AB
S1130690112309F442C07301103221F41FB8779B6F
S11306A0FECF36C080911E0290911F02DC01ED91B5
S11306B0FC910684F785E02D0995012F10E0C8010F
S11306C088978C01000F111F000F111F080F191FAD
S11306D0F801E85EFF4F6F01035E1F4FC6010E94E1
S11306E0270D8FB9779BFECFFFEFCF1ADF0AC01615
S11306F0D106A1F71FB8779BFECF80911E0290917F
S11307001F02DC01ED91FC910088F189E02D09952F
S1130710F70111917F011111BFCF80911E029091B9
S11307201F02DC01ED91FC910088F189E02D09950F
S113073049B3C52CD42CE52DF42D832D922D50E0F6
S11307409A01082E02C0359527950A94E2F720FFF6
S113075002C0A08201C0B082019631968830910512
S113076079F780911E0290911F02DC01ED91FC91BA
S11307700684F785E02D09951FB8779BFECF1FB837
S1130780779BFECFE2E1F2E01081112309F442C02D
S11307907301103221F41FB8779BFECF36C08091CD
S11307A01E0290911F02DC01ED91FC910684F785F5
S11307B0E02D0995012F10E0C80188978C01000FE6
S11307C0111F000F111F080F191FF801E85EFF4FDA
S11307D04F01035E1F4FC4010E94270D8FB9779B01
S11307E0FECFFFEF8F1A9F0A80169106A1F71FB85C
S11307F0779BFECF80911E0290911F02DC01ED9148
S1130800FC910088F189E02D0995F70111917F0190
S11308101111BFCF80911E0290911F02DC01ED9156
S1130820FC910088F189E02D099580911E02909138
S11308301F02DC01ED91FC910088F189E02D0995FE
S113084080913C028FB9779BFECFB1EBBFB9779B08
S1130850FECF80913D028FB9779BFECF80911E021F
S113086090911F02DC01ED91FC910684F785E02D47
S113087009951FB8779BFECF46E050E06CE070E02E
S1130880852D942D0E94170D80911E0290911F02B8
S1130890DC01ED91FC910684F785E02D09951FB8E4
S11308A0779BFECF1FB8779BFECFE2E1F2E0108189
S11308B0112309F442C07301103221F41FB8779B4D
S11308C0FECF36C080911E0290911F02DC01ED9193
S11308D0FC910684F785E02D0995012F10E0C801ED
S11308E088978C01000F111F000F111F080F191F8B
S11308F0F801E85EFF4F4F01035E1F4FC4010E94E1
S1130900270D8FB9779BFECFFFEF8F1A9F0A8016B2
S11309109106A1F71FB8779BFECF80911E0290919C
S11309201F02DC01ED91FC910088F189E02D09950D
S1130930F70111917F011111BFCF80911E02909197
S11309401F02DC01ED91FC910088F189E02D0995ED
S113095047B3E52DF42D832D922D50E09A01082EF6
S113096002C0359527950A94E2F720FF02C0A082C1
S113097001C0B082019631968830910579F7809153
S11309801E0290911F02DC01ED91FC910684F78513
S1130990E02D09951FB8779BFECF1FB8779BFECF3C
S11309A0E2E1F2E01081112309F442C07301103234
S11309B021F41FB8779BFECF36C080911E02909120
S11309C01F02DC01ED91FC910684F785E02D099569
S11309D0012F10E0C80188978C01000F111F000F30
S11309E0111F080F191FF801E85EFF4F4F01035E46
S11309F01F4FC4010E94270D8FB9779BFECFFFEFD5
S1130A008F1A9F0A80169106A1F71FB8779BFECF15
S1130A1080911E0290911F02DC01ED91FC910088EF
S1130A20F189E02D0995F70111917F011111BFCFD3
S1130A3080911E0290911F02DC01ED91FC910088CF
S1130A40F189E02D099580911E0290911F02DC012D
S1130A50ED91FC910088F189E02D099580913C028B
S1130A608FB9779BFECFB2EBBFB9779BFECF809156
S1130A703D028FB9779BFECF80911E0290911F0299
S1130A80DC01ED91FC910684F785E02D09951FB8F2
S1130A90779BFECF46E050E066E070E0852D942D14
S1130AA00E94170D80911E0290911F02DC01ED91AE
S1130AB0FC910684F785E02D09951FB8779BFECF3E
S1130AC01FB8779BFECFE2E1F2E01081112309F415
S1130AD042C07301103221F41FB8779BFECF36C099
S1130AE080911E0290911F02DC01ED91FC9106841D
S1130AF0F785E02D0995012F10E0C80188978C0136
S1130B00000F111F000F111F080F191FF801E85ED5
S1130B10FF4F4F01035E1F4FC4010E94270D8FB981
S1130B20779BFECFFFEF8F1A9F0A80169106A1F7DD
S1130B301FB8779BFECF80911E0290911F02DC01AB
S1130B40ED91FC910088F189E02D0995F70111914F
S1130B507F011111BFCF80911E0290911F02DC0111
S1130B60ED91FC910088F189E02D099543B3E52DC1
S1130B70F42D832D922D50E09A01082E02C0359554
S1130B8027950A94E2F720FF02C0A08201C0B08238
S1130B90019631968830910579F780911E029091E3
S1130BA01F02DC01ED91FC910684F785E02D099587
S1130BB01FB8779BFECF1FB8779BFECFE2E1F2E030
S1130BC01081112309F442C07301103221F41FB8BB
S1130BD0779BFECF36C080911E0290911F02DC01EC
S1130BE0ED91FC910684F785E02D0995012F10E025
S1130BF0C80188978C01000F111F000F111F080FE7
S1130C00191FF801E85EFF4F4F01035E1F4FC40137
S1130C100E94270D8FB9779BFECFFFEF8F1A9F0A93
S1130C2080169106A1F71FB8779BFECF80911E0214
S1130C3090911F02DC01ED91FC910088F189E02D77
S1130C400995F70111917F011111BFCF80911E0207
S1130C5090911F02DC01ED91FC910088F189E02D57
S1130C60099580911E0290911F02DC01ED91FC9187
S1130C700088F189E02D099580913C028FB9779B1A
S1130C80FECFB3EBBFB9779BFECF80913D028FB906
S1130C90779BFECF80911E0290911F02DC01ED91A3
S1130CA0FC910684F785E02D09951FB8779BFECF4C
S1130CB046E050E060E070E0852D942D0E94170D11
S1130CC080911E0290911F02DC01ED91FC9106843B
S1130CD0F785E02D09951FB8779BFECF1FB8779B4A
S1130CE0FECFE2E1F2E01081112309F442C0730166
S1130CF0103221F41FB8779BFECF36C080911E02BC
S1130D0090911F02DC01ED91FC910684F785E02DA2
S1130D100995012F10E0C80188978C01000F111F5D
S1130D20000F111F080F191FF801E85EFF4F4F0154
S1130D30035E1F4FC4010E94270D8FB9779BFECF1E
S1130D40FFEF8F1A9F0A80169106A1F71FB8779BB1
S1130D50FECF80911E0290911F02DC01ED91FC9167
S1130D600088F189E02D0995F70111917F01111196
S1130D70BFCF80911E0290911F02DC01ED91FC9186
S1130D800088F189E02D099540B3E52DF42D832DDC
S1130D90922D50E09A01082E02C0359527950A94A9
S1130DA0E2F720FF02C0A08201C0B0820196319612
S1130DB08830910579F780911E0290911F02DC0121
S1130DC0ED91FC910684F785E02D09951FB8779B7A
S1130DD0FECF1FB8779BFECFE2E1F2E01081112332
S1130DE009F441C04301103221F41FB8779BFECFB0
S1130DF035C080911E0290911F02DC01ED91FC919F
S1130E000684F785E02D0995812F90E088977C0171
S1130E10EE0CFF1CEE0CFF1C8E0D9F1D8C01085E5A
S1130E201F4FFC01E35EFF4F7F01C8010E94270DA5
S1130E308FB9779BFECF0F5F1F4F0E151F05A9F7C4
S1130E401FB8779BFECF80911E0290911F02DC0198
S1130E50ED91FC910088F189E02D0995F40111913F
S1130E604F011111C0CF80911E0290911F02DC012D
S1130E70ED91FC910088F189E02D099580911E0285
S1130E8090911F02DC01ED91FC910088F189E02D25
S1130E90099580913C028FB9779BFECFB6EBBFB921
S1130EA0779BFECF80913D028FB9779BFECF8091D7
S1130EB01E0290911F02DC01ED91FC910684F785DE
S1130EC0E02D09951FB8779BFECF46E050E060E027
S1130ED070E0852D942D0E94170D80911E02909133
S1130EE01F02DC01ED91FC910684F785E02D099544
S1130EF01FB8779BFECF1FB8779BFECFE2E1F2E0ED
S1130F001081112309F441C04301103221F41FB8A8
S1130F10779BFECF35C080911E0290911F02DC01A9
S1130F20ED91FC910684F785E02D0995812F90E0E1
S1130F3088977C01EE0CFF1CEE0CFF1C8E0D9F1D90
S1130F408C01085E1F4FFC01E35EFF4F7F01C80167
S1130F500E94270D8FB9779BFECF0F5F1F4F0E1591
S1130F601F05A9F71FB8779BFECF80911E029091B1
S1130F701F02DC01ED91FC910088F189E02D0995B7
S1130F80F40111914F011111C0CF80911E02909173
S1130F901F02DC01ED91FC910088F189E02D099597
S1130FA040911C02832D922D50E09A01082E02C01C
S1130FB0359527950A94E2F720FF03C0F601A08235
S1130FC002C0D601BC920196BFEFCB1ADB0A88306F
S1130FD0910559F780911E0290911F02DC01ED9159
S1130FE0FC910684F785E02D09951FB8779BFECF09
S1130FF01FB8779BFECFE2E1F2E01081112309F4E0
S113100042C07301103221F41FB8779BFECF36C063
S113101080911E0290911F02DC01ED91FC910684E7
S1131020F785E02D0995012F10E0C80188978C0100
S1131030000F111F000F111F080F191FF801E85EA0
S1131040FF4F6F01035E1F4FC6010E94270D8FB92A
S1131050779BFECFFFEFCF1ADF0AC016D106A1F7A8
S11310601FB8779BFECF80911E0290911F02DC0176
S1131070ED91FC910088F189E02D0995F70111911A
S11310807F011111BFCF80911E0290911F02DC01DC
S1131090ED91FC910088F189E02D099580911D0264
S11310A0882309F4AFCA10EB00E080911E029091EE
S11310B01F02DC01ED91FC910088F189E02D099576
S11310C080913C028FB9779BFECF1FB9779BFECFEF
S11310D080913D028FB9779BFECF80911E02909143
S11310E01F02DC01ED91FC910684F785E02D099542
S11310F0802F1FB8779BFECF8F5F8038D1F7809108
S11311001E0290911F02DC01ED91FC910088F1898F
S1131110E02D09951F5F183B41F610921D0272CA1B
S11311200F931F93CF93DF9310927302E3E6F2E0E1
S113113083E792E011921192E817F907D9F7109218
S11311405F0210925E0210925B0210925A02109299
S1131150570210925602E2E1F2E080E8828F90EBAF
S1131160938F80EF848F81E8858F84EA868F85EA68
S1131170878F86EA80A387EA81A38EEA82A38FEA17
S113118083A383ED84A38AED85A38BED86A385EDEC
S113119087A389ED80A788EA81A782E082A720E15E
S11311A023A720E424A720E225A721E226A797A7C6
S11311B090EC90AB98EC91AB90EA92AB9DEA93AB38
S11311C09BE894AB85AB8FE286AB8EE287AB83EA78
S11311D080AF86E281AF87E282AF89E283AF8AE2A1
S11311E084AF81E0838786E690E09587848784E6F0
S11311F090E09787868780E790E0978B868B8EE6D2
S113120090E0918B808B82E690E0938B828B80E6DA
S113121090E0918F808F82E790E0958B848BC8E07B
S1131220D2E01D821C821F821E820FE008871CED03
S11312301987E4E7F0E0F983E8830190F081E02D79
S11312400688F789E02D84E790E0099588819981E3
S1131250DC01ED91FC910684F785E02D09951B8254
S11312601A8286E590E09D838C838BE590E09F83D2
S11312708E83CEEFD1E01D821C821F821E820887DE
S11312801987E6E7F0E0F983E8830190F081E02D27
S11312900688F789E02D86E790E009958881998191
S11312A0DC01ED91FC910684F785E02D09951B8204
S11312B01A8282E690E09D838C8385E790E09F8389
S11312C08E83DF91CF911F910F91089508959BB361
S11312D081E089278BBB0895D99A0895D9980895F8
S11312E09BB384E089278BBB0895DA9A0895D09A3A
S11312F00895D19A0895D29A0895D89A0895089590
S113130008950895089508950895089508950895F1
S1131310089508950895C49A0895C498089598B3B3
S113132080E1892788BB0895BC9A089517BA089567
S1131330662341F0DC01ED91FC910684F785E02DF4
S113134009950895DC01ED91FC910088F189E02D67
S11313500995089586B3829581700895C49A089575
S1131360C498089598B380E1892788BB0895BC9AEE
S1131370089587B317BA0895DD9A0895DD980895FE
S11313809BB380E289278BBB0895D59A08951ABA36
S11313900895662341F0DC01ED91FC910684F78504
S11313A0E02D09950895DC01ED91FC910088F18907
S11313B0E02D0995089589B385FB882780F9089560
S11313C0DD9A0895DD9808959BB380E289278BBB4D
S11313D00895D59A08958AB31ABA0895DC9A08959F
S11313E0DC9808959BB380E189278BBB0895D49A38
S11313F008951ABA0895662341F0DC01ED91FC9139
S11314000684F785E02D09950895DC01ED91FC91A2
S11314100088F189E02D0995089589B3829581703A
S11314200895DC9A0895DC9808959BB380E1892798
S11314308BBB0895D49A08958AB31ABA0895DB9A97
S11314400895DB9808959BB388E089278BBB0895A2
S1131450D39A08951ABA0895662341F0DC01ED91F8
S1131460FC910684F785E02D09950895DC01ED9142
S1131470FC910088F189E02D0995089589B383FBD7
S1131480882780F90895DB9A0895DB9808959BB323
S113149088E089278BBB0895D39A08958AB31ABA32
S11314A00895DA9A0895DA9808959BB384E0892719
S11314B08BBB0895D29A08951ABA0895662341F011
S11314C0DC01ED91FC910684F785E02D09950895E2
S11314D0DC01ED91FC910088F189E02D09950895D6
S11314E089B382FB882780F90895DA9808958AB32E
S11314F01ABA0895D99A0895D99808959BB382E0A9
S113150089278BBB0895D19A08951ABA0895662342
S113151041F0DC01ED91FC910684F785E02D0995FD
S11315200895DC01ED91FC910088F189E02D099585
S1131530089589B38695817008959BB382E08927C5
S11315408BBB08958AB31ABA0895D89A0895D89887
S113155008959BB381E089278BBB0895D09A0895A1
S11315601ABA0895662341F0DC01ED91FC910684DA
S1131570F785E02D09950895DC01ED91FC91008833
S1131580F189E02D0995089589B381700895D8985B
S113159008958AB31ABA0895C59A0895C598089506
S11315A098B380E2892788BB0895BD9A089517BA35
S11315B00895662341F0DC01ED91FC910684F785E2
S11315C0E02D09950895DC01ED91FC910088F189E5
S11315D0E02D0995089586B385FB882780F9089541
S11315E0C59A0895C598089598B380E2892788BB61
S11315F00895BD9A089587B317BA0895C69A0895B1
S1131600C698089598B380E4892788BB0895BE9A44
S1131610089517BA0895662341F0DC01ED91FC9119
S11316200684F785E02D09950895DC01ED91FC9180
S11316300088F189E02D0995089586B386FB8827F3
S113164080F90895C69A0895C698089598B380E4D9
S1131650892788BB0895BE9A089587B317BA089559
S1131660C79A0895C798089588B3805888BB089589
S1131670BF9A089517BA0895662341F0DC01ED91ED
S1131680FC910684F785E02D09950895DC01ED9120
S1131690FC910088F189E02D0995089581E0B79BBC
S11316A080E00895C79A0895C798089588B380582C
S11316B088BB0895BF9A089587B317BA0895979A77
S11316C008959798089582B3805882BB08958F9A9D
S11316D0089511BA0895662341F0DC01ED91FC915F
S11316E00684F785E02D09950895DC01ED91FC91C0
S11316F00088F189E02D0995089581E0879B80E0B9
S11317000895979A08959798089582B3805882BB54
S113171008958F9A089581B311BA0895969A0895F9
S11317209698089592B380E4892782BB08958E9A8F
S1131730089511BA0895662341F0DC01ED91FC91FE
S11317400684F785E02D09950895DC01ED91FC915F
S11317500088F189E02D0995089580B386FB8827D8
S113176080F90895969A08959698089592B380E41E
S1131770892782BB08958E9A089581B311BA08957A
S11317800E947F0C08950E947F0C08950E947F0C94
S113179008950E947F0C08950E947F0C08950E9472
S11317A07F0C08950E947F0C08950E947F0C089579
S11317B00E947F0C08950E947F0C08950E947F0C64
S11317C008950E947F0C0895EE0FFF1F0590F49179
S11317D0E02D0994CF93DF938230910510F482E0D9
S11317E090E0E0917602F091770220E030E0C0E0F2
S11317F0D0E0309711F14081518148175907C0F06A
S11318004817590761F482819381209719F09B83CB
S11318108A832BC0909377028093760226C0211589
S1131820310519F04217530718F49A01BE01DF017C
S1131830EF010280F381E02DDCCF2115310509F1A0
S1131840281B390B2430310590F412968D919C910C
S113185013976115710521F0FB019383828304C002
S11318609093770280937602FD01329644C0FD0185
S1131870E20FF31F81939193225031092D933C93EE
S11318803AC02091740230917502232B41F42091C7
S11318907A0030917B00309375022093740220917A
S11318A07800309179002115310541F42DB73EB708
S11318B040917C0050917D00241B350BE091740213
S11318C0F0917502E217F307A0F42E1B3F0B2817C3
S11318D0390778F0AC014E5F5F4F2417350748F0A5
S11318E04E0F5F1F5093750240937402819391933E
S11318F002C0E0E0F0E0CF01DF91CF9108950F93B3
S11319001F93CF93DF93009709F48CC0FC013297A7
S1131910138212820091760210917702011511054B
S113192081F420813181820F931F209174023091C0
S113193075022817390779F5F0937502E09374025C
S113194071C0D80140E050E0AE17BF0750F41296C2
S11319502D913C911397AD012115310509F1D90160
S1131960F3CF9D01DA013383228360817181860F75
S1131970971F8217930769F4EC0128813981260F98
S1131980371F2E5F3F4F318320838A819B8193834E
S11319908283452B29F4F0937702E093760242C0C8
S11319A01396FC93EE931297ED01499159919E0180
S11319B0240F351FE217F30771F480819181840F9E
S11319C0951F029611969C938E9382819381139610
S11319D09C938E931297E0E0F0E0D80112968D91DB
S11319E09C911397009719F0F8018C01F6CF8D9113
S11319F09C9198012E5F3F4F820F931F2091740298
S1131A00309175022817390769F4309729F4109238
S1131A1077021092760202C013821282109375022A
S1131A2000937402DF91CF911F910F910895DC010F
S1131A30CB01FC01E199FECF06C0FFBBEEBBE09AEF
S1131A4031960DB20D9241505040B8F70895E19986
S1131A50FECF9FBB8EBBE09A99278DB3089510E00B
S1131A60CBE2D0E004C0FE010E94E40B2196CC320C
S10B1A70D107C9F7F894FFCF78
S1131A78E201C201A20182016201420122010201C2
S1131A88E200C200A20082000000780220000000E8
S1131A9800008E0B900B920B970B990B9B0BAD0BC5
S1131AA8B20BB40BB60BBB0BBD0B8A09E10B0000E0
S1131AB800005F0B610B630B670B690B6B0B7D0BF2
S1131AC8810B830B850B890B8B0B8909DE0B0000BB
S1131AD80000300B320B340B380B3A0B3C0B4E0B1B
S1131AE8520B540B560B5A0B5C0B8809DB0B00008A
S1131AF80000FE0A000B020B070B090B0B0B1D0B56
S1131B08220B240B260B2B0B2D0B8709D80B00005B
S1131B180000CC0ACE0AD00AD50AD70AD90AEB0A99
S1131B28F00AF20AF40AF90AFB0A8609D50B00003E
S1131B380000A50AA70AA90AAE0AB00AB20AC40A8A
S1131B487D09C70A67097709C90A8509D20B000004
S1131B5800007A0A7C0A7E0A830A850A870A990A97
S1131B686C096E099D0A7909A20A8409CF0B000041
S1131B780000510A530A550A5A0A5C0A5E0A700A96
S1131B887509750A70097B09770A8309CC0B00006B
S1131B9800001F0A210A230A280A2A0A2C0A3E0AD4
S1131BA8430A450A470A4C0A4E0A8209C90B00002F
S1131BB80000EE09F009F209F709F909FB090D0A11
S1131BC8110A130A150A1A0A1C0A8109C60B00000D
S1131BD80000BC09BE09C009C509C709C909DB0950
S1131BE8E009E209E409E909EB098009C30B0000EB
S1131BF800008B098D098F09940996099809AA0987
S1111C08AE09B009B209B709B9097F09C00BCA
S9030000FC
