:100000000C942C000C9454000C9454000C94540048
:100010000C9454000C9454000C9454000C94540010
:100020000C9454000C9454000C9454000C94540000
:100030000C9454000C9454000C9454000C945400F0
:100040000C9454000C9454000C9454000C9414011F
:100050000C9454006406790611241FBECFE5D4E049
:10006000DEBFCDBF11E0A0E6B0E0E2E9FFE002C0F4
:1000700005900D92AA30B107D9F721E0AAE0B1E0CE
:1000800001C01D92A133B207E1F710E0CBE2D0E04E
:1000900004C02197FE010E948906CA32D107C9F720
:1000A0000E9461060C94BC070C9400008091190119
:1000B0008823C9F080911A0190911B018D3B9240D9
:1000C00044F010921B0110921A0198B382E0892724
:1000D00088BB80911A0190911B01019690931B019E
:1000E00080931A010895C19A0895879B13C0809147
:1000F0000A0190910B018D3D9105B0F480910A01A8
:1001000090910B01409708F047C010920B0110929C
:100110000A01089580910A0190910B010196909334
:100120000B0180930A01089520910A0130910B017F
:100130003695279536952795ABE7B4E10E947A0668
:1001400096958795BC017727FB01E559FF4F808184
:100150008823B9F020916800222399F090E09F5FF6
:100160002083292F30E0FB01E20FF31FE559FF4FF9
:100170004081442331F0D901A859BF4F2C9121115E
:10018000EECF9091190181E0892780931901109297
:100190000B0110920A010895809170008823B9F034
:1001A00090916800992399F0E0E7F0E080E08F5F9C
:1001B0009083282F30E0F901E059FF4F9081992377
:1001C00031F0D901A859BF4F9C919111F0CF98B34C
:1001D00084E0892788BB99CF0C948F060C94240760
:1001E000CF93DF93A82FB0E0FD01E559FF4F808149
:1001F0008823B9F0EB012881222399F090E09F5FDA
:100200002083292F30E0FD01E20FF31FE559FF4F56
:100210004081442331F0EB01C20FD31F288121110B
:10022000EECFDF91CF9108951F920F920FB60F92EC
:1002300011242F933F934F935F936F937F938F93EB
:100240009F93AF93BF93EF93FF9390912C01E92F6E
:10025000F0E0EE0FFF1FE45EFE4FA081B18110972A
:1002600041F01296ED91FC911397CD010995909173
:100270002C019F5F983098F010922C01FF91EF9124
:10028000BF91AF919F918F917F916F915F914F91AE
:100290003F912F910F900FBE0F901F901895909344
:1002A0002C01ECCF80FF0BC0A89A81FF0BC0A99A4C
:1002B00082FF0BC0AA9A83FD0BC0AB980895A89843
:1002C00081FDF5CFA99882FDF5CFAA9883FFF5CFE0
:1002D000AB9A089583B38170999982609A998460EA
:1002E0009B9988600895A09AA19AA29AA39AAD9822
:1002F000AC9A282F30E0359527953595279535957B
:1003000027953595279520FF58C0A89A21FF53C0FF
:10031000A99A22FF4BC0AA9A23FD4BC0AB98AC9878
:10032000AC9A80FF41C0A89A81FF3CC0A99A82FF85
:1003300034C0AA9A83FD34C0AB98AC98AE98A0980C
:10034000A198A298A398AD9AAC9A83B38170982F84
:1003500092609999892F982F94609A99892F982F54
:1003600098609B99892F20E1829FC0011124AC984D
:10037000AC9A23B32170322F32609999232F322FF8
:1003800034609A99232F33B3422F4860AC9833FDE1
:10039000242F822B87FDD2CF0895AA9883FFCCCF3C
:1003A000AB9ACBCFA998C3CFA898BECFAA9823FF6A
:1003B000B5CFAB9AB4CFA998ACCFA898A7CFE0910E
:1003C0000C01E031C1F0E13269F0F0E0E559FF4F96
:1003D0008081AE9A0E94730180910C018F5F80939F
:1003E0000C010895AE9880E80E94730110920C01F0
:1003F000E0E0F0E0EBCFAE9880EC0E947301E0917A
:100400000C01E1CFA098A198A298A398AD9AAC9ABC
:1004100023B32170999922609A9924609B9928604E
:1004200080E1289F90011124AC98AC9A83B381702D
:10043000999982609A9984609B998860AC98822B84
:100440000895AE980C947301AE98A098A198A298C4
:10045000A398AD9AAC9A23B32170999922609A9986
:1004600024609B99286080E1289F90011124AC981A
:10047000AC9A83B38170999982609A9984609B99B0
:100480008860AC98822B0895AE9A0C947301AE9A52
:10049000A098A198A298A398AD9AAC9A23B3217082
:1004A000999922609A9924609B99286080E1289FFD
:1004B00090011124AC98AC9A83B3817099998260B1
:1004C0009A9984609B998860AC98822B0895CF9309
:1004D000DF93EC018881882339F02196AE9A0E943F
:1004E000730189918111FACFDF91CF910895AE9870
:1004F00090E4699F800D112480680C947301AE987C
:1005000081E00E9473018FE39FE10197F1F700C042
:1005100000000895AE9882E00E9473018FE39FE18E
:100520000197F1F700C000000895A09AA19AA29A3D
:10053000A39AA49AA69AA59A8FE59AEE0197F1F745
:1005400000C00000AE98AC98AD98AC9AA89AA99A51
:10055000AA98AB98AC988FE19EE40197F1F700C0A0
:100560000000AC9AA89AA99AAA98AB98AC988FE187
:100570009EE40197F1F700C00000AC9AA89AA99AEE
:10058000AA98AB98AC988FE19EE40197F1F700C070
:100590000000AC9AA898A99AAA98AB98AC988FE951
:1005A0009FE00197F1F700C00000AE9888E20E943A
:1005B00073018FE99FE00197F1F700C00000AE984A
:1005C00088E00E9473018FE99FE00197F1F700C076
:1005D0000000AE9881E00E9473018FE99FE00197CF
:1005E000F1F700C00000AE9886E00E9473018FE929
:1005F0009FE00197F1F700C00000AE988CE00C94EA
:10060000730186E590E09093180180931701809123
:100610001C0190911D01009709F4CCC020911E018E
:1006200030911F01232B09F4DFC02091200130916C
:100630002101232B09F4DEC02091220130912301F6
:10064000232B09F4E0C02091240130912501232BB4
:1006500009F4E2C02091260130912701232B09F4EF
:10066000E1C02091280130912901232B09F4E9C030
:1006700020912A0130912B01232B09F4E8C025E7B2
:1006800030E03093140120931301009709F47EC0E9
:1006900020911E0130911F01232B09F4A2C020914B
:1006A000200130912101232B09F4A7C020912201C0
:1006B00030912301232B09F4A9C02091240130910A
:1006C0002501232B09F4ABC020912601309127018D
:1006D000232B09F4AAC02091280130912901232B52
:1006E00009F4ACC020912A0130912B01232B09F48D
:1006F000ABC02FED31E03093100120930F01892B17
:1007000009F441C080911E0190911F01892B09F4C9
:1007100065C08091200190912101892B09F467C067
:100720008091220190912301892B09F469C0809165
:10073000240190912501892B09F46BC08091260139
:1007400090912701892B09F473C080912801909121
:100750002901892B09F46FC080912A0190912B0106
:10076000892B09F0089587E090E0FC01EE0FFF1F50
:10077000E45EFE4F2DE031E03183208390930E0143
:1007800080930D01089580E090E0EFCF80E090E04D
:10079000FC01EE0FFF1FE45EFE4F21E131E03183EB
:1007A0002083909312018093110180911C019091FC
:1007B0001D019FCF80E090E0FC01EE0FFF1FE45E83
:1007C000FE4F25E131E03183208390931601809321
:1007D000150180911C0190911D0151CF81E090E0A5
:1007E000C4CF81E090E0D4CF81E090E0E5CF82E01B
:1007F00090E0BBCF82E090E0DFCF82E090E0C8CF16
:1008000083E090E0B2CF83E090E0D6CF83E090E049
:10081000BFCF84E090E0A9CF84E090E0CDCF84E02A
:1008200090E0B6CF85E090E0C7CF85E090E0B0CF14
:1008300085E090E09ACF86E090E097CF86E090E068
:10084000A7CF86E090E0B8CF87E090E0A1CF87E027
:1008500090E0B2CF0E949502AE9882E00E947301B0
:100860008FE39FE10197F1F700C0000008950E9417
:100870009502AE9882E00E9473018FE39FE1019799
:10088000F1F700C0000081B311BA979A87B387606F
:1008900087BB88B3876088BB86E590E0909318019A
:1008A0008093170180911C0190911D01009709F41C
:1008B000BBC020911E0130911F01232B09F4EFC012
:1008C0002091200130912101232B09F4EEC02091C9
:1008D000220130912301232B09F4F3C0209124013C
:1008E00030912501232B09F4F2C02091260130918B
:1008F0002701232B09F4F7C0209128013091290109
:10090000232B09F4F9C020912A0130912B01232BCC
:1009100009F4F8C025E730E0309314012093130167
:10092000009709F4A5C020911E0130911F01232BCF
:1009300009F4B8C02091200130912101232B09F442
:10094000B7C02091220130912301232B09F4BCC0B0
:100950002091240130912501232B09F4BBC0209163
:10096000260130912701232B09F4C0C020912801D2
:1009700030912901232B09F4C2C020912A01309122
:100980002B01232B09F4C4C02FED31E0309310016B
:1009900020930F01892B09F45BC080911E01909177
:1009A0001F01892B09F478C08091200190912101C9
:1009B000892B09F480C08091220190912301892B19
:1009C00009F47CC08091240190912501892B09F4C0
:1009D00084C08091260190912701892B09F480C061
:1009E0008091280190912901892B09F482C080917E
:1009F0002A0190912B01892B09F487C087E08CBFD5
:100A000083B78E7F83BF83B7886083BF89B78E7FAC
:100A100089BF89B7826089BF83B78E7F83BF83B761
:100A2000846083BF7894089580E090E0FC01EE0F2D
:100A3000FF1FE45EFE4F25E131E031832083909378
:100A400016018093150180911C0190911D0162CFC8
:100A500080E090E0FC01EE0FFF1FE45EFE4F2DE012
:100A600031E03183208390930E0180930D01C6CF36
:100A700080E090E0FC01EE0FFF1FE45EFE4F21E1FD
:100A800031E0318320839093120180931101809192
:100A90001C0190911D0178CF81E090E0DBCF81E0D7
:100AA00090E0C4CF81E090E0E5CF82E090E0BECF5F
:100AB00082E090E0DFCF82E090E0CCCF83E090E076
:100AC000C9CF83E090E0B2CF83E090E0D3CF84E061
:100AD00090E0ACCF84E090E0CDCF84E090E0BACF5E
:100AE00085E090E0B7CF85E090E0A0CF85E090E092
:100AF000C1CF86E090E0AECF86E090E097CF86E071
:100B000090E0B8CF87E090E091CF87E090E0A2CF6F
:100B100087E090E0AFCF98B382E0892788BB089543
:100B2000C19A089598B384E0892788BB089581B35A
:100B300011BA0895979A0895BA9A0895B89A08959F
:100B4000B99A0895C29A0895C09A0895C19A0895CD
:100B50000895089508950895C198089598B382E07E
:100B6000892788BB089517BA0895C1980895B99A3E
:100B7000089587B317BA0895C098089598B381E08F
:100B8000892788BB089517BA0895C09A0895C09818
:100B9000089598B381E0892788BB0895B89A08958D
:100BA00087B317BA0895C298089598B384E0892747
:100BB00088BB089517BA0895C29A0895C2980895F7
:100BC000BA9A089587B317BA0895979A089597988F
:100BD000089582B3805882BB08958F9A089511BA00
:100BE00008959798089582B3805882BB08958F9A8C
:100BF00008950C9424070C9424070C9424070C9457
:100C00002407DC01ED91FC9161110AC00684F7858F
:100C1000E02DB5E0E53BFB0711F4C1980895099478
:100C20000484F585E02DB5E0E039FB07C1F7C19AF2
:100C30000895DC01ED91FC9161110AC00684F785ED
:100C4000E02DB5E0E73CFB0711F4C0980895099446
:100C50000484F585E02DB5E0E53CFB07C1F7C09ABB
:100C60000895DC01ED91FC9161110AC00684F785BD
:100C7000E02DB5E0EE3DFB0711F4C298089509940C
:100C80000484F585E02DB5E0EC3DFB07C1F7C29A81
:100C90000895DC01ED91FC9161110AC00684F7858D
:100CA000E02DB5E0E13FFB0711F497980895099412
:100CB0000484F585E02DB5E0EA39FB07C1F7979A82
:100CC00008950E943704FFCFECE1F1E0108A80E143
:100CD000DF011D928A95E9F7109218011092170111
:100CE00010921401109213011092100110920F0132
:100CF00008950895A29FB001B39FC001A39F700DF6
:100D0000811D1124911DB29F700D811D1124911D13
:100D10000895EE0FFF1F0590F491E02D0994CF93F5
:100D2000DF938230910510F482E090E0E0912F0192
:100D3000F091300120E030E0C0E0D0E0309711F1D8
:100D40004081518148175907C0F04817590761F48D
:100D500082819381209719F09B838A832BC0909383
:100D6000300180932F0126C02115310519F042175B
:100D7000530718F49A01BE01DF01EF010280F381ED
:100D8000E02DDCCF2115310509F1281B390B24306A
:100D9000310590F412968D919C9113976115710510
:100DA00021F0FB019383828304C0909330018093F0
:100DB0002F01FD01329644C0FD01E20FF31F819324
:100DC0009193225031092D933C933AC020912D01EB
:100DD00030912E01232B41F420918E0030918F0011
:100DE00030932E0120932D0120918C0030918D00A5
:100DF0002115310541F42DB73EB740919000509137
:100E00009100241B350BE0912D01F0912E01E2178A
:100E1000F307A0F42E1B3F0B2817390778F0AC011D
:100E20004E5F5F4F2417350748F04E0F5F1F5093FA
:100E30002E0140932D018193919302C0E0E0F0E0F8
:100E4000CF01DF91CF9108950F931F93CF93DF933D
:100E5000009709F48CC0FC01329713821282009132
:100E60002F01109130010115110581F4208131818C
:100E7000820F931F20912D0130912E0128173907E1
:100E800079F5F0932E01E0932D0171C0D80140E077
:100E900050E0AE17BF0750F412962D913C91139776
:100EA000AD012115310509F1D901F3CF9D01DA0119
:100EB0003383228360817181860F971F8217930786
:100EC00069F4EC0128813981260F371F2E5F3F4FCF
:100ED000318320838A819B8193838283452B29F4EC
:100EE000F0933001E0932F0142C01396FC93EE93F0
:100EF0001297ED01499159919E01240F351FE21778
:100F0000F30771F480819181840F951F02961196E9
:100F10009C938E938281938113969C938E931297C8
:100F2000E0E0F0E0D80112968D919C911397009724
:100F300019F0F8018C01F6CF8D919C9198012E5FEC
:100F40003F4F820F931F20912D0130912E012817C2
:100F5000390769F4309729F41092300110922F016B
:100F600002C01382128210932E0100932D01DF9193
:100F7000CF911F910F91089510E0CBE2D0E004C013
:100F8000FE010E9489062196CC32D107C9F7F89458
:020F9000FFCF91
:100F9200F000D200B40096004F6B00303030303099
:100FA200303030303030303030303030303030303F
:100FB20030303030303030303030300000003101ED
:100FC200200000000000E505E705E905ED05EF0555
:100FD20049069A05F105F305F7059705AB05F905ED
:100FE20000000000A205D305D5059C05DA053106EF
:100FF200DC05DE059205E005E205AA05FB05000019
:101002000000A405BC05BE059E05C3051906C5055D
:10101200C705C905CE05D005A905FD0500000000DC
:10102200A605AC05AE05A005B30501069005B505FC
:0A1032008B05B705B905A805FF05F9
:00000001FF
